:020000040800F2
:100000000000032035100008692E00086B2E000840
:100010006D2E00086F2E0008712E000800000000F1
:1000200000000000000000000000000071820008D5
:10003000732E00080000000001830008777B000891
:10004000851000088510000885100008851000083C
:10005000851000088510000885100008851000082C
:10006000851000088510000885100008851000081C
:10007000851000088510000885100008851000080C
:1000800085100008851000088510000885100008FC
:1000900085100008851000088510000885100008EC
:1000A00085100008851000088510000885100008DC
:1000B00085100008851000088510000885100008CC
:1000C00085100008851000088510000885100008BC
:1000D00085100008851000088510000885100008AC
:1000E000851000088510000885100008851000089C
:1000F000851000088510000885100008851000088C
:10010000851000088510000885100008851000087B
:100110008510000885100008752E0008851000085D
:10012000851000088510000885100008851000085B
:10013000851000088510000885100008851000084B
:10014000851000088510000885100008851000083B
:10015000851000088510000885100008851000082B
:10016000851000088510000885100008851000081B
:1001700085100008851000088510000800000000A8
:1001800085100008851000088510000885100008FB
:1001900085100008851000088510000885100008EB
:0C01A000812E0008851000088D2E00083C
:1001B00010B5054C237833B9044B13B10448AFF3A1
:1001C00000800123237010BD800300200000000088
:1001D0008459020808B5034B1BB103490348AFF328
:1001E000008008BD0000000084030020845902083C
:1001F000034613F8012B002AFBD1181A0138704767
:1002000001F0FF01102A2BDB10F0070F08D010F8C7
:10021000013B013A8B422DD010F0070F42B3F6D1CB
:10022000F0B441EA012141EA014122F007047FF0E4
:1002300000070023F0E80256083C85EA010586EA3B
:10024000010685FA47F5A3FA87F586FA47F6A5FA77
:1002500087F68EB9EED1F0BC01F0FF0102F0070283
:1002600032B110F8013B013A83EA010313B1F8D12E
:100270000020704701387047002D06BF354603380F
:10028000073815F0010F07D1013015F4807F02BF48
:10029000013015F4C03F0130F0BC0138704700BF99
:1002A00081F0004102E000BF83F0004330B54FEA27
:1002B00041044FEA430594EA050F08BF90EA020F94
:1002C0001FBF54EA000C55EA020C7FEA645C7FEA27
:1002D000655C00F0E2804FEA5454D4EB5555B8BF4A
:1002E0006D420CDD2C4480EA020281EA030382EABB
:1002F000000083EA010180EA020281EA0303362D4D
:1003000088BF30BD11F0004F4FEA01314FF4801C1F
:100310004CEA113102D0404261EB410113F0004F31
:100320004FEA03334CEA133302D0524263EB4303E8
:1003300094EA050F00F0A780A4F10104D5F1200E86
:100340000DDB02FA0EFC22FA05F2801841F10001E1
:1003500003FA0EF2801843FA05F359410EE0A5F1B5
:1003600020050EF1200E012A03FA0EFC28BF4CF0E6
:10037000020C43FA05F3C01851EBE37101F000459C
:1003800007D54FF0000EDCF1000C7EEB00006EEBA9
:100390000101B1F5801F1BD3B1F5001F0CD3490833
:1003A0005FEA30004FEA3C0C04F101044FEA44528A
:1003B00012F5800F80F09A80BCF1004F08BF5FEA11
:1003C000500C50F1000041EB045141EA050130BDF1
:1003D0005FEA4C0C404141EB0101013C28BFB1F503
:1003E000801FE9D291F0000F04BF01460020B1FA4E
:1003F00081F308BF2033A3F10B03B3F120020CDA21
:100400000C3208DD02F1140CC2F10C0201FA0CF0FE
:1004100021FA02F10CE002F11402D8BFC2F1200C63
:1004200001FA02F120FA0CFCDCBF41EA0C01904019
:10043000E41AA2BF01EB0451294330BD6FEA040462
:100440001F3C1CDA0C340EDC04F11404C4F120024D
:1004500020FA04F001FA02F340EA030021FA04F35F
:1004600045EA030130BDC4F10C04C4F1200220FAB6
:1004700002F001FA04F340EA0300294630BD21FAF4
:1004800004F0294630BD94F0000F83F4801306BFBA
:1004900081F480110134013D4EE77FEA645C18BFAE
:1004A0007FEA655C29D094EA050F08BF90EA020F45
:1004B00005D054EA000C04BF1946104630BD91EA3D
:1004C000030F1EBF0021002030BD5FEA545C05D140
:1004D0004000494128BF41F0004130BD14F580047F
:1004E0003CBF01F5801130BD01F0004545F0FE41F3
:1004F00041F470014FF0000030BD7FEA645C1ABF28
:10050000194610467FEA655C1CBF0B46024650EA5E
:10051000013406BF52EA033591EA030F41F400218A
:1005200030BD00BF90F0000F04BF0021704730B510
:100530004FF4806404F132044FF000054FF00001E5
:1005400050E700BF90F0000F04BF0021704730B5A6
:100550004FF4806404F1320410F0004548BF40427B
:100560004FF000013EE700BF42004FEAE2014FEAD0
:1005700031014FEA02701FBF12F07F4393F07F4FAB
:1005800081F06051704732F07F4208BF704793F0AE
:100590007F4F04BF41F40021704730B54FF46074C1
:1005A00001F0004521F000411CE700BF50EA0102C4
:1005B00008BF704730B54FF000050AE050EA01026D
:1005C00008BF704730B511F0004502D5404261EBDD
:1005D00041014FF4806404F132045FEA915C3FF41E
:1005E000D8AE4FF003025FEADC0C18BF03325FEABB
:1005F000DC0C18BF033202EBDC02C2F1200300FA6C
:1006000003FC20FA02F001FA03FE40EA0E0021FA90
:1006100002F11444BDE600BF70B54FF0FF0C4CF47E
:10062000E06C1CEA11541DBF1CEA135594EA0C0F30
:1006300095EA0C0F00F0DEF82C4481EA030621EA6B
:100640004C5123EA4C5350EA013518BF52EA0335A6
:1006500041F4801143F4801338D0A0FB02CE4FF058
:100660000005E1FB02E506F00042E0FB03E54FF088
:100670000006E1FB03569CF0000F18BF4EF0010E80
:10068000A4F1FF04B6F5007F64F5407404D25FEA7C
:100690004E0E6D4146EB060642EAC62141EA55512F
:1006A0004FEAC52040EA5E504FEACE2EB4F1FD0C71
:1006B00088BFBCF5E06F1ED8BEF1004F08BF5FEAEF
:1006C000500E50F1000041EB045170BD06F00046A1
:1006D00046EA010140EA020081EA0301B4EB5C044E
:1006E000C2BFD4EB0C0541EA045170BD41F4801146
:1006F0004FF0000E013C00F3AB8014F1360FDEBF6B
:10070000002001F0004170BDC4F10004203C35DA46
:100710000C341BDC04F11404C4F1200500FA05F3C9
:1007200020FA04F001FA05F240EA020001F000426A
:1007300021F0004110EBD37021FA04F642EB0601E0
:100740005EEA430E08BF20EAD37070BDC4F10C040A
:10075000C4F1200500FA04F320FA05F001FA04F2CE
:1007600040EA020001F0004110EBD37041F10001BA
:100770005EEA430E08BF20EAD37070BDC4F12005C5
:1007800000FA05F24EEA020E20FA04F301FA05F22D
:1007900043EA020321FA04F001F0004121FA04F2D5
:1007A00020EA020000EBD3705EEA430E08BF20EAA5
:1007B000D37070BD94F0000F0FD101F000464000DF
:1007C00041EB010111F4801F08BF013CF7D041EA61
:1007D000060195F0000F18BF704703F00046520065
:1007E00043EB030313F4801F08BF013DF7D043EA36
:1007F0000603704794EA0C0F0CEA135518BF95EAEC
:100800000C0F0CD050EA410618BF52EA4306D1D172
:1008100081EA030101F000414FF0000070BD50EA91
:10082000410606BF1046194652EA430619D094EA1B
:100830000C0F02D150EA013613D195EA0C0F05D105
:1008400052EA03361CBF104619460AD181EA030159
:1008500001F0004141F0FE4141F470014FF0000011
:1008600070BD41F0FE4141F4780170BD70B54FF0AC
:10087000FF0C4CF4E06C1CEA11541DBF1CEA13552C
:1008800094EA0C0F95EA0C0F00F0A7F8A4EB05040E
:1008900081EA030E52EA03354FEA013100F0888005
:1008A0004FEA03334FF0805545EA131343EA1263CE
:1008B0004FEA022245EA111545EA10654FEA002683
:1008C0000EF000419D4208BF964244F1FD0404F53C
:1008D000407402D25B084FEA3202B61A65EB030598
:1008E0005B084FEA32024FF480104FF4002CB6EB55
:1008F000020E75EB030E22BFB61A754640EA0C00D5
:100900005B084FEA3202B6EB020E75EB030E22BF14
:10091000B61A754640EA5C005B084FEA3202B6EB55
:10092000020E75EB030E22BFB61A754640EA9C0014
:100930005B084FEA3202B6EB020E75EB030E22BFE4
:10094000B61A754640EADC0055EA060E18D04FEAA2
:10095000051545EA16754FEA06164FEAC30343EA42
:1009600052734FEAC2025FEA1C1CC0D111F4801F0F
:100970000BD141EA00014FF000004FF0004CB6E708
:1009800011F4801F04BF01430020B4F1FD0C88BFA7
:10099000BCF5E06F3FF6AFAEB5EB030C04BFB6EBB2
:1009A000020C5FEA500C50F1000041EB045170BDA5
:1009B0000EF0004E4EEA113114EB5C04C2BFD4EBD2
:1009C0000C0541EA045170BD41F480114FF0000E56
:1009D000013C90E645EA060E8DE60CEA135594EAD2
:1009E0000C0F08BF95EA0C0F3FF43BAF94EA0C0FD5
:1009F0000AD150EA01347FF434AF95EA0C0F7FF44A
:100A000025AF104619462CE795EA0C0F06D152EA9D
:100A100003353FF4FDAE1046194622E750EA410681
:100A200018BF52EA43067FF4C5AE50EA41047FF492
:100A30000DAF52EA43057FF4EBAE12E74FF0FF3CF7
:100A400006E000BF4FF0010C02E000BF4FF0010CC8
:100A50004DF804CD4FEA410C7FEA6C5C4FEA430C41
:100A600018BF7FEA6C5C1BD001B050EA410C0CBF90
:100A700052EA430C91EA030F02BF90EA020F0020F2
:100A8000704710F1000F91EA030F58BF994208BF59
:100A900090422CBFD8176FEAE37040F00100704716
:100AA0004FEA410C7FEA6C5C02D150EA013C07D16D
:100AB0004FEA430C7FEA6C5CD6D152EA033CD3D0B8
:100AC0005DF8040B704700BF8446104662468C46B2
:100AD0001946634600E000BF01B5FFF7B7FF0028E5
:100AE00048BF10F1000F01BD4DF808EDFFF7F4FF0E
:100AF0000CBF012000205DF808FB00BF4DF808ED99
:100B0000FFF7EAFF34BF012000205DF808FB00BFBB
:100B10004DF808EDFFF7E0FF94BF012000205DF8DD
:100B200008FB00BF4DF808EDFFF7CEFF94BF012092
:100B300000205DF808FB00BF4DF808EDFFF7C4FF8B
:100B400034BF012000205DF808FB00BF4FEA410CD4
:100B50007FEA6C5C02D150EA013C0AD14FEA430CB7
:100B60007FEA6C5C02D152EA033C02D14FF00000F4
:100B700070474FF0010070474FEA410212F5001232
:100B800015D211D56FF47873B3EB625212D94FEAD4
:100B9000C12343F0004343EA505311F0004F23FABE
:100BA00002F018BF404270474FF00000704750EA13
:100BB000013005D111F0004008BF6FF000407047D0
:100BC0004FF00000704700BF4FEA4102B2F1E0432E
:100BD00024BFB3F5001CDCF1FE5C0DD901F0004C24
:100BE0004FEAC0024CEA5070B2F1004F40EB830074
:100BF00008BF20F00100704711F0804F21D113F1A0
:100C00003872BCBF01F00040704741F480114FEAD8
:100C10005252C2F11802C2F1200C10FA0CF320FA61
:100C200002F018BF40F001004FEAC1234FEAD3237E
:100C300003FA0CFC40EA0C0023FA02F34FEA4303E8
:100C4000CCE77FEA625307D150EA01331EBF4FF071
:100C5000FE4040F44000704701F0004040F0FE408C
:100C600040F40000704700BF7BB972B90029BEBFD5
:100C700000204FF0004106E008BF00281CBF6FF0C5
:100C800000414FF0FF3000F0D3B9ADF1080C6DE931
:100C900004CE002909DB002B1ADB00F04DF8DDF84B
:100CA00004E0DDE9022304B07047404261EB4101FA
:100CB000002B1BDB00F040F8DDF804E0DDE9022347
:100CC00004B0404261EB4101524263EB4303704781
:100CD000524263EB430300F02FF8DDF804E0DDE956
:100CE000022304B0404261EB41017047524263EB82
:100CF000430300F021F8DDF804E0DDE9022304B04D
:100D0000524263EB4303704753B94AB9002908BF05
:100D100000281CBF4FF0FF314FF0FF3000F088B9C2
:100D2000ADF1080C6DE904CE00F006F8DDF804E042
:100D3000DDE9022304B070472DE9F047089D8E4697
:100D400004468846002B4AD18A42174662D9B2FA35
:100D500082F64EB1C6F1200301FA06F820FA03F339
:100D6000B74043EA0808B4404FEA174E1FFA87FC21
:100D7000B8FBFEF1230C0EFB118843EA084301FB8C
:100D80000CF29A4209D9FB1801F1FF3080F0EA8099
:100D90009A4240F2E78002393B449A1AA3B2B2FB6E
:100DA000FEF00EFB102243EA024300FB0CFC9C45C4
:100DB00009D9FB1800F1FF3280F0D6809C4540F243
:100DC000D3803B44023840EA0140A3EB0C030021EE
:100DD0001DB1F3400022C5E90032BDE8F0878B4227
:100DE00005D90DB1C5E9000100210846F5E7B3FAC0
:100DF00083F1002946D1734502D3824200F2058176
:100E0000841A6EEB030201209046002DE5D0C5E95F
:100E10000048E2E7002A00F09080B2FA82F6002E45
:100E200040F0A4808A1A030C4FEA174E80B2BCB27D
:100E30000121B2FBFEFC0EFB1C2243EA024304FB31
:100E40000CF29A4207D9FB180CF1FF3802D29A42F1
:100E500000F2E080C4469B1AB3FBFEF20EFB123395
:100E600040EA034302FB04F49C4207D9FB1802F159
:100E7000FF3002D29C4200F2CA8002461B1B42EAAB
:100E80000C40A5E7C1F120068B4022FA06F71F436C
:100E90000EFA01F420FA06F32EFA06FE4FEA17497D
:100EA000234300FA01F81FFA87FCBEFBF9F01C0C83
:100EB00009FB10EE44EA0E4400FB0CFEA64502FAC4
:100EC00001F209D93C1900F1FF3A80F09C80A64557
:100ED00040F2998002383C44A4EB0E041FFA83FED2
:100EE000B4FBF9F309FB13444EEA044403FB0CFC86
:100EF000A44508D93C1903F1FF3E80F08280A44547
:100F00007FD9023B3C4443EA0040A4EB0C04A0FB25
:100F100002EC64457346E14662D35FD05DB1B8EB45
:100F2000030264EB090404FA06F622FA01F31E43F5
:100F3000CC40C5E9006400214FE7B1FBF2FC010C95
:100F400041EA0E4180B240EA01423B4638463C4607
:100F5000B846BE462026B1FBF7F1A2EB080241EAF3
:100F60000C4166E7014618E710462CE7C6F120025F
:100F70002EFA02F3B740B14020FA02F24FEA174EC0
:100F80000A43B3FBFEF8BCB20EFB1833110C41EA66
:100F9000034108FB04F9B04089454FEA104380B291
:100FA0003ED9791808F1FF3C01D289451FD8A1EB41
:100FB0000901B1FBFEF909FB04F80EFB191192B20D
:100FC00042EA0142424529D2BA1809F1FF31C4D29E
:100FD0004245C2D2A9F102013A44BEE7F0459DD292
:100FE000BEEB02036CEB070C0138E14696E7A7EB7A
:100FF00009094944A8F1020CB1FBFEF909FB04F808
:10100000DBE773467FE7504666E70846FDE63B446C
:10101000023A33E7ACF1020C3B441CE749469CE73B
:10102000A1EB0901C446B1FBFEF909FB04F8C4E7D2
:10103000704700BFDFF834D0002103E00C4B5B5851
:10104000435004310B480C4B42189A42F6D30B4ADA
:1010500002E0002342F8043B094B9A42F9D303F023
:10106000E5FF23F079FD01F0ADF8704700000320A3
:1010700044A01308000000206C0100208003002021
:10108000B8590120FEE7704708B500F0BFFDBDE884
:10109000084000F041BD00F0BBBD704710B5042111
:1010A000044622F072F8204610BD000038B50C4B03
:1010B0000C4C18800C4B822019806368984740F6CE
:1010C000110398420AD1094D23682C608220984769
:1010D0002B688220DB689847002038BD0120FCE7A0
:1010E000A603002054000020A4030020A803002031
:1010F0004FF4A071F020FFF7D9BF0000F7B5394DCC
:101100002B6804461B6982209847208000284ED017
:101110002B680DF106025B6901A982209847324BCA
:101120001B78002B4BD0BDF8062040F674639A4222
:101130003FD9ADF80630BDF806209B1A9BB20A2BAA
:1011400042D90B22B3FBF2F3284A1288934201D909
:10115000013A93B2BDF80420254840F6B8318A42DE
:1011600034D8C2F571620E32016892B20F25B2FB1B
:10117000F5F2204D2D88AA4284BF05F1FF35AAB2B1
:101180008A4215468EB22AD9921B91B21A4E3768FE
:10119000BB42BAB28CBF9A1AD21A92B21144052934
:1011A000C4BF05603360036863803368A38003B005
:1011B000F0BDB32A9CBFB422ADF80620BBE7BDF852
:1011C0000630A3F5B473B9E70023C3E7C2F56D6237
:1011D000083292B20E2A0168C8D800252A46891A18
:1011E00089B2D3E7A8030020C43A0020A40300205A
:1011F000A0030020A60300209C03002037B568460A
:101200000D461446FFF77AFFBDF8000030B1BDF877
:1012100002302B60BDF804302360012003B030BDE4
:10122000032821D8DFE800F0020B12190F4B1A68CF
:10123000B2FA82F2520904210D4804F0A1BB0B4B13
:101240005A68B2FA82F252090821F5E7074B9A6808
:10125000B2FA82F252091021EEE7044BDA68B2FAD0
:1012600082F252092021E7E7704700BFAC0300205B
:1012700000100240032821D8DFE800F0020B121909
:101280000F4B1A68003A18BF012204210D4804F0E0
:1012900077BB0B4B5A68003A18BF01220821F5E7CB
:1012A000074B9A68003A18BF01221021EEE7044B61
:1012B000DA68003A18BF01222021E7E7704700BF33
:1012C000AC0300200010024003280DD8DFE800F036
:1012D0000206080A0421054804F057BB0821FAE772
:1012E0001021F8E72021F6E7704700BF0010024008
:1012F00008B5032811D8DFE800F0020A0C0E04211B
:10130000074804F037FB431E5842584108BD0821E6
:10131000F6E71021F4E72021F2E70020F3E700BF11
:101320000010024070B5084D00240126E0B2FFF71E
:10133000DFFF18B12B68012B18BF2E600134052C7C
:1013400005F10405F2D170BDAC030020012380F843
:10135000781080F87930704770470020704700009F
:10136000034B4164003918BF01211970704700BF59
:10137000774C0120704700207047836B0BB1084603
:10138000184770474FF6FF707047406803689B69C5
:1013900018477047704770477047704710B504464C
:1013A00000F04CFD23680349D3F890302046BDE897
:1013B00010401847000000D008B503680446D3F871
:1013C0008430984723682046DB6F984700F0ECF89C
:1013D000236820465B6F9847292001F0D7F900F079
:1013E000E3F8236820465B6F9847F8E710B504469A
:1013F00009F05EFD23682046D3F8BC30BDE81040FC
:10140000184700F0FFBC00F003BD00F035BD00F050
:10141000D5BC00F045BD00F04DBD00F0D9BC08F0D2
:1014200075BF10B58421044621F0AFFE204610BDE3
:1014300010B590F8341090F878400C4B8C421A7824
:1014400009D03AB90A4A0B491488088810800C80E0
:1014500001221A7010BD002AFCD0054A05491488E3
:10146000088810800C800022F3E700BF704C012038
:101470006C4C01206E4C012070B50D46194635B9F3
:10148000094B0A4A0A4840F2FF2123F035F8C0E927
:101490000F52084B003A18BF01221A700368BDE8CA
:1014A0007040D3F890301847745A0208AC5A0208BA
:1014B000FA5A0208764C012008B5094B1B888B426A
:1014C00003D8084B1B88934205D9074B074A0848A5
:1014D000A32123F011F8074B1980074B1A8008BD90
:1014E0006C4C01206E4C01203F5B0208A25B02089D
:1014F000FA5A0208724C0120744C0120034690F8FD
:101500007A0018B1586803681B68184770470000D4
:10151000012108B50022084606F0C0FB0A4B1860FE
:1015200028B90A4B0A4A28210A4822F0E5FF00227E
:101530000421012006F051FC074B186018B9074B35
:10154000034A2C21F0E708BDC0030020E55B020838
:101550002E5C02085D5C0208BC0300209B5C020854
:10156000024B4FF0FF31186806F0E2BBC0030020C9
:10157000014B186806F008BCC0030020024B002194
:10158000186806F0D5BB00BFC0030020FFF7F0BF0E
:1015900003480449006800231A4606F059BC00BFFE
:1015A000BC0300200400002013B5084C00231A4699
:1015B00001A9206806F07DFC20684FF0FF3300226F
:1015C00001A906F076FC02B010BD00BFBC030020EC
:1015D00003685B6C18470120704703689B6A1847D3
:1015E000FEE740F2EF307047054B0360054B4FF0CC
:1015F0008062C3F88820BFF34F8FBFF36F8F7047AF
:101600009066020800E100E010B504464FF45A610C
:10161000FFF7EAFF204621F0B8FD204610BD00008C
:1016200082B0002301930E4B1A6B42F400021A633E
:101630001A6B02F400020192019A1A6942F4000244
:101640001A611A6922F400021A61064B064A1A61ED
:10165000064A5A61064B4FF080629A6002B07047AA
:1016600000380240A43C0020C1180008E115000821
:1016700000E100E008B50A2809D8DFE800F006100C
:101680000E080808081010101000022008BD054BB5
:10169000054A0648902122F02FFF0020F6E701209E
:1016A000F4E700BFDD5C0208F85C0208435D020855
:1016B00038B50C46887FFFF7DDFFA58AE28A164B16
:1016C0002169586342EA05425A64628BD963521B0E
:1016D0001A642568082D0ED19A611A615862207F1C
:1016E0000E4A42EA0062DA61E2681A620C4A596103
:1016F000D9601A6038BD0022D8611A61E1680A0A0F
:10170000480902F4784200F4FC600243C1F3C401CA
:101710000A439A63034AECE700B002400900010063
:10172000012302000123030008B50B280BD8DFE8D2
:1017300000F00612100A0A0A0A080808080802201F
:1017400008BD0520FCE7054B054A06486F2122F03D
:10175000D3FE0020F4E70120F2E700BFDD5C0208C1
:101760007F5D0208435D02082DE9F04191F81D807C
:101770000C464046FFF7D8FFA77F05463846FFF7DF
:10178000D3FF06463846FFF775FFA18A628B444BAC
:10179000521A1A649A61228B521A1A61E28A5863A9
:1017A00042EA01425A6421696268D963DA602068BA
:1017B000802828D0227F0FD8202867D0402865D0E5
:1017C00004281AD0364B45EA026545F40035B84581
:1017D000DD6161D0334A44E0B0F5807F04D0B0F5DC
:1017E000007FEFD1304800E0304840EA0262DA6121
:1017F000E2681A625E62596132E045EA026242F4CE
:101800000032DA61F6E7A068021DDA62227F45EA5B
:10181000026545F40035DD615E625961017841B1D0
:10182000012921D0224B234A23484FF48D7122F005
:1018300063FEDA69418822F47F42013922F0100206
:1018400042EA0122DA610121154BDA6942F02002F5
:10185000DA61DA699206FCD410229A600029B9D0C4
:10186000164A1A60BDE8F081B2F1FF01DA694088DA
:1018700022F47F4200F1FF3022F0100242EA0022FF
:1018800042F0100218BF0121DA61DDE745EA026289
:10189000034B42F40032B4E742F20132E1E700BF09
:1018A00000B0024001230100090002000A0002000A
:1018B000C95D0208E35D0208435D020801230200DE
:1018C000024B1B68586803685B691847784C012015
:1018D00070B5044625460A4B0C300026606026721F
:1018E000667245F8203B6022294609F037FC04F572
:1018F0005A63EE6024359D42FBD1204670BD00BF87
:1019000090660208034B1A68D207FCD423229A601F
:10191000704700BF00B002407047000030B50F4C68
:101920002568ED07FCD423250904A56041F00101D9
:101930000225FF2B65636164E0630AD00849656294
:1019400041EA0363E361074B22626061E060236068
:1019500030BDE561039BA363034BF8E700B0024091
:1019600009000100010002000100030030B50E4C27
:101970002568ED07FCD423251204A56042F001027E
:101980000225FF2B65636264E063E16008D01B06FB
:1019900043F00213E361054B65626061236030BD73
:1019A000034BE3610123F9E700B0024001000200AC
:1019B000020002FF30B50B4C2568ED07FCD423254F
:1019C00012041B06A56043F40033022542F0010215
:1019D00065636264E063E160E361034B65626061DB
:1019E000236030BD00B002400100020001207047BA
:1019F0000C2070470C2303FB0100083070470C23B8
:101A000003FB0100083070470120704742F2B450D8
:101A1000704742F2B45303FB01000830704742F2B2
:101A2000B45303FB010008307047012070471020B9
:101A3000704700EB01100830704700EB01100830D0
:101A40007047084601F022BC10B5034B0360044602
:101A500008F0B3F9204610BD4867020810B50446E7
:101A6000FFF7F2FF2046142121F08FFB204610BD26
:101A700010B5034B0360044608F09FF9204610BDE3
:101A80001467020810B50446FFF7F2FF204642F241
:101A9000BC5121F07AFB204610BD000010B5034B6D
:101AA0000360044608F089F9204610BDE06602088C
:101AB00010B50446FFF7F2FF2046182121F065FB20
:101AC000204610BD10B5094B0360044600F51750C1
:101AD0002830FFF7B9FF04F12C00FFF7C9FF04F12C
:101AE0001400FFF7DBFF204610BD00BF7C67020833
:101AF00008B50248FFF7E6FF08BD00BF9C120020B2
:101B000010B50446FFF7DEFF204642F25C7121F07B
:101B10003CFB204610BD00002DE9F34101F02CFAFA
:101B2000054601F02DFA00240146234628462246A8
:101B3000009412F097FA274B274A1A60204602F0C9
:101B4000C3F9264D264B274A27489A6012F0F2F92E
:101B50002B68BFF35B8FDB0735D4284621F017FBDA
:101B600088B3224C224B234F236004F5185604F10E
:101B7000140004F12C086060C4F80880E760266156
:101B800008F01CF91C4B6361404608F017F91B4B29
:101B9000E362384608F012F904F5005303F2FC50F2
:101BA000174AC3F8E82502F013FA2246311F3046DF
:101BB00002F004FA304601F069FB124822F0BAFC48
:101BC000284621F0F0FA104802B0BDE8F041FFF7D6
:101BD000E5BB00BFDC4C0120480400209812002027
:101BE000680400204C040020080000209C12002003
:101BF0007C67020884380020E06602081467020847
:101C000048670208F11A0008C4030020704700006A
:101C10000148FFF7D1BB00BFC403002070B5264EBA
:101C2000264C274D274B23603046FFF751FE2846B0
:101C300017F01EFB24480FF057FE244B2448DC60AD
:101C400000224FF48071C3E9121222491A86C3E9B7
:101C50001A12214983F85820C3E91E011F49C3F80D
:101C600080101F491F480B60F021C3E90422C3E91B
:101C70000622C3E90822C3E90A22C3E90E22C3E906
:101C80001022C3E91422C3E917225A6683F8702090
:101C90005A67C3E9016501801348018013484FF476
:101CA000A07101801248018012490A70012283F854
:101CB0003420114A1A6070BDF404002094120020F0
:101CC00068040020645A02084C040020C403002069
:101CD0000000010101000001000450001A0014007E
:101CE000784C01206C4C0120724C01206E4C01207C
:101CF000744C0120704C0120A46502080148FFF7D4
:101D000073BC00BFF404002000207047818070473E
:101D1000C1807047018170474181704770477047AB
:101D200070477047704710B4C4880368121B8488DA
:101D30005B6D091B12B25DF8044B09B218474FF6F0
:101D4000FF7383814FF0FF3303621368C361106038
:101D50007047002070478B88838001207047704750
:101D600080F82610704790F82600704710B50022C2
:101D7000B1F90840B1F90A10028042808480C18024
:101D800010BD0022028042808280C28070470177AD
:101D9000704780ED080A704780F82410704780F87B
:101DA0002510704701207047983070478C3070477D
:101DB000843070477047704770470000034B902293
:101DC00083F85A2383F85823704700BF00E100E0EE
:101DD000094A0A49D3680A48C3F30A03013B9BB284
:101DE0000B801169C1F30A01013901801364536B3F
:101DF00043F001035363704700680140FA39002043
:101E0000F8390020014BD3F8AC007047006801405E
:101E1000024B0122C3F8AC105A62704700680140BF
:101E200010B52C21044621F0B0F9204610BD10B5A4
:101E3000BC21044621F0A9F9204610BD70B5044626
:101E400008F0B9FA23689D6E0EF0E6FA01462046C6
:101E5000A8472368054AD3F88C502046AC46002397
:101E6000BDE87040A2F51631604700BF00B004D055
:101E700008F088BA08F092BA08F04EBA08F0BDBB74
:101E800090F8252012B103685B691847704790F8F5
:101E900025201AB190F8242002B118607047000084
:101EA000034B4FF080629A604FF080729A607047E7
:101EB00000E100E0084B4FF08062C3F88820BFF3D8
:101EC0004F8FBFF36F8F4FF08072C3F88820BFF33E
:101ED0004F8FBFF36F8F704700E100E070B50023B4
:101EE000124E8380124B0360336893F858200546E6
:101EF0000AB1D86C00B998680368DB6A9847336800
:101F0000B0FA80F4D86C640930B10368DB6A984792
:101F1000002808BF44F001042CB9064B064A0748C4
:101F20002C2122F0E9FA284670BD00BF784C012030
:101F300090670208215E02087F5E0208B85E020810
:101F400070B5254E3568BFF35B8F15F0010540D1A4
:101F5000304621F01CF900283BD0204C204B256155
:101F600004F13400C4E90035C4E90255E584A562F2
:101F7000A5850FF09EFF04F158000AF0A5FD194B4E
:101F8000A3652046184B40F8843BFFF7A7FF174B8B
:101F9000C4F884302433C4F88C304FF4C803C4E947
:101FA00028350023C4F8AC30C4F8B030C4F8B430DD
:101FB000C4F8B8300E480F4BC4F89050C4F89C5089
:101FC000C4F8A850C4F8983022F0B4FA304621F092
:101FD000EAF8024870BD00BFFC390020003A00203A
:101FE000A06E0208B067020828680208546E020852
:101FF000B91D0008346E020838B5184C23685BB36D
:10200000174B184A1B6C11888B4216D1164B198836
:1020100004F0BEFA236893F86A200025013283F8A1
:102020006A2083F87C50FFF7B3FA206808F040FF7D
:102030002846BDE83840FFF7F3B804F0A9FA246851
:10204000236820461B6A9847012384F87C300020CF
:10205000BDE83840FFF70EB938BD00BF784C01200D
:1020600000680140FA390020F839002007B5064B16
:10207000ADF806001B68054801220DF1060104F0C9
:10208000FDFF03B05DF804FB0C000020503B002076
:1020900008B5642005F0F6FDFBE70000BFB51B4E58
:1020A0001B4D1C4C1C4F304603F0B4F8284603F07F
:1020B000B1F80121304603F02BF90121284603F045
:1020C00027F9164B22881A80154B3A881A80304619
:1020D00003F071F92080284603F06DF92288114938
:1020E000388083B201A822F0CBFB01A8FEF780F86C
:1020F0000A2382B201A90C4805F057FC322002F0F5
:10210000CFFF012005F0BEFDCBE700BF343D00202E
:10211000EC3C00201A0000201800002016000020CF
:10212000140000201A5F0208083B002030B595B06B
:10213000102200210AA822F008FC1422002103A882
:1021400022F003FC00241D4B01941A6C42F08052D3
:102150001A641B6C03F080530193019B184B02948B
:102160001A6842F440421A601B6803F44043029329
:102170000122029B4FF48033CDE9082302254FF45E
:102180008003CDE90E5308214FF4A873CDE9101355
:1021900008A804231393129504F018FA0F23CDE92D
:1021A00003354FF4A0504FF48053CDE906030521C9
:1021B00003A8059404F0E6FB15B030BD00380240DA
:1021C000007000402DE980489BB002F03DFFFFF712
:1021D000ADFF142200210DA822F0B7FB0024C84B4C
:1021E00000941A6BC748C84D42F010021A631A6B6C
:1021F00002F010020092009A01941A6B42F0200241
:102200001A631A6B02F020020192019A02941A6B6F
:1022100042F080021A631A6B02F080020292029A64
:1022200003941A6B42F004021A631A6B02F0040260
:102230000392039A04941A6B42F001021A631A6B18
:1022400002F001020492049A05941A6B42F0020211
:102250001A631A6B02F002020592059A06941A6B31
:1022600042F040021A631A6B02F040020692069A8C
:1022700007941A6B42F008021A631B6B03F0080301
:10228000224607933C21079B03F07AFB9F480122DB
:10229000022103F075FB22469C48042103F070FBE9
:1022A00022469B484FF4405103F06AFB01263C2331
:1022B000CDE90D3693480F9403230DA902271093FF
:1022C00003F074FA91480DA9CDE90D76CDE90F44DC
:1022D00003F06CFA04238D480DA9CDE90D36CDE944
:1022E0000F4703F063FA0DA94FF440538848CDE936
:1022F0000D36CDE90F4703F059FA8648864B036047
:1023000003F04AF9DFF838C2844B2C62C5E900C3F8
:1023100028464FF48043C5E90434C5E90244C5E9C1
:10232000064403F03BFD1021284603F07FFF2146C1
:10233000284603F09AFF7A4DDFF808E2AC624FF4CA
:102340008273C5E900E34FF400781823C5E90683DA
:1023500028460A23C5E90244C5E90444C5E90844FE
:10236000EB6204F02FFE8F232246394667488DF832
:1023700024308DF8344003F003FB32464FF47A7377
:1023800009A9284604F07AFE4FF47A7332460DA963
:10239000284605F01FF8324639465C48614D03F087
:1023A000EFFA9DF83430D32B04BF5F4B1E705F4BA8
:1023B0000126C5E900364FF0100840230024C5E986
:1023C00004834FF4C073C5E906344FF40063C5E9D4
:1023D00008344FF4005302274FF0040A4FF0030B68
:1023E000AB620DA907232846CDE90D73CDE90FA3F4
:1023F0004FF00809C5E9024ACDE911B7139704F077
:10240000C5FC4FF6FF7209A92846CDE90A96089443
:1024100009960C9404F0DAFC304602F041FE4FF6C7
:10242000FF7209A92846CDE90979CDE90B6404F0CA
:10243000CDFC4FF6FF7209A92846CDE909B9CDE9CF
:102440000BA404F0C3FC4FF40C730893089B0C938B
:102450004FF6FF7209A92846CDE909A90B9604F0A9
:10246000B5FC40F26A51284604F0CEFC34222146E5
:102470000DEB020022F069FA2D4D2E4B2C61C5E9BF
:1024800000340923C5E905361D23C5E9073B40F2A1
:102490000D1240F24313C5E9092340F2171140F22F
:1024A00047132846C5E90B13C5E90244AC8685F8F5
:1024B000364003F075FFFF21F022CDE912144FF0F2
:1024C00005094FF480614FF4A073CDE90E24CDE9E6
:1024D0001419CDE916420DA922462846CDE9103738
:1024E000154D18930D94ADF864408DF8664004F0D6
:1024F00022F8124B2B601B6898472B6824E000BF22
:102500000038024000100240503C00200008024009
:10251000000C0240E43C002000300240A086010094
:10252000503B0020D43A0020C43A0020400100A0D3
:10253000A83B002000680140BC3A00201C0000209D
:10254000005C004000500140424DDB689847424B20
:102550002846C5E90034C5E90274C5E90A47C5E95A
:102560000C4403F029F83146284603F0DBF83B4DD4
:102570003B4F424621460DA822F0E7F9394B2C612A
:102580004FF4003B4FF0007A2846C5E9003BC5F800
:1025900008A02C7685F82040EC62AF62EC60EE611A
:1025A00085F830406E6102F08FFD0D230DA928469D
:1025B000CDE90D362C4D0F9402F000FF4246214626
:1025C0000DA822F0C2F9294BC5F808A02846C5E994
:1025D000003BC5E90A742C612C7685F82040EC603C
:1025E000EE6185F830406E6102F06EFD0DA928465F
:1025F000CDE90D961E4D0F9402F0E0FE1D484FF4FC
:10260000E133C0E900530C23C0E90534C0E90244BA
:102610000461C46105F09AF9FEF736FDFEF733FD5B
:1026200005F0B6FA144A1548214605F0E7FA144BAE
:10263000144A18602146144805F0E0FA134B144A76
:1026400018602146134805F0D9FA134B186005F0BD
:10265000B1FAFEE7A43C002000B00240343D002067
:102660000100000F00200140EC3C0020002101404F
:1026700000100140083B0020B468020891200008C7
:10268000D03A00209068020897100008CC3A002049
:102690006C6802089D200008C83A00207047704707
:1026A0007FB5094B8DF817201B6802930DF11702B7
:1026B0000123009201930A460146044803F016FCE8
:1026C00007B05DF804FB00BF10000020503C002064
:1026D0007FB500238DF81730084B1B6802930A461C
:1026E00001230DF11701009101930146044803F005
:1026F0008DFC9DF8170007B05DF804FB100000206A
:10270000503C00201FB5084C24680092CDE90134EC
:102710000A4601230146054803F078FC003818BF3B
:10272000012004B010BD00BF10000020503C00206C
:1027300002F0B6BC10B5064C00222046042103F07E
:102740001FF920460122BDE81040042103F018B90A
:102750000008024038B50B4D044601220A484FF4E8
:10276000005103F00DF900220421284603F008F976
:102770002046FFF77BFC28460122BDE838400421B3
:1027800003F0FEB800080240000C024038B50B4DC3
:10279000044600220A484FF4005103F0F1F80022E9
:1027A0000421284603F0ECF82046FFF75FFC28469A
:1027B0000122BDE83840042103F0E2B800080240DD
:1027C000000C0240F7B5144E144F05460C46304637
:1027D0000022042103F0D4F800224FF400513846BF
:1027E00003F0CEF82846FFF741FC0D4B0D481B685F
:1027F000224601A904F0EEFD384601224FF40051B3
:10280000019C03F0BDF830460122042103F0B8F822
:10281000204603B0F0BD00BF00080240000C02409B
:102820000C000020503B002002F03ABC0268034B31
:102830009A4201D102F022BC704700BF0010004054
:102840007047000082B00E4B00220092596C41F498
:1028500080415964596C01F48041009100990192C2
:10286000196C41F0805119641B6C03F08053019383
:10287000019B0F216FF0010002B002F04DBE00BFBE
:102880000038024010B514228AB0044600210DEB36
:10289000020022F05AF82368214A93421FD1214BAB
:1028A0002148002101915A6C42F480725A645A6C9A
:1028B00002F480720192019A02911A6B42F00402B2
:1028C0001A631B6B03F0040302930821029B03238A
:1028D000CDE9051305A902F069FF0AB010BD134A3E
:1028E0009342FAD10F4B1248002103915A6C42F4E3
:1028F00000725A645A6C02F400720392039A0491B3
:102900001A6B42F001021A631B6B03F0010304937C
:10291000049B20220323CDE9052305A9DBE700BFA3
:102920000020014000380240000802400021014020
:10293000000002400268094B9A4282B00BD100238A
:102940000193074B1A6B42F480521A631B6B03F41A
:1029500080530193019B02B0704700BF00300240DA
:102960000038024007B50F4B02689A4216D1002288
:10297000A3F5F0430192196B41F4000119631B6B3D
:1029800003F40003019305215A20019B02F0C4FDCA
:102990005A2003B05DF804EB02F0F0BD03B05DF81F
:1029A00004FB00BF00B002402DE9F043044689B0AB
:1029B0001422002103A821F0C8FF2268244B9A4268
:1029C00043D1244C244800250095236B43F0040395
:1029D0002363236B03F004030093009B0195236B97
:1029E00043F001032363236B03F001030193019B75
:1029F0004FF012094FF400734FF00108032704262B
:102A000003A9CDE90339CDE90587079602F0CEFE8B
:102A10004FF480731148079603A9CDE90339CDE936
:102A2000058702F0C3FE0295236C43F40003236480
:102A3000236C03F400030293029B236A43F4000314
:102A40002362236A23F40003236209B0BDE8F08304
:102A5000005C0040003802400008024000000240D4
:102A6000F0B599B004461422002107A821F06DFFAB
:102A700030220DEB0200002121F067FF22685E4B3F
:102A80009A4240F0B78008230C93C023109304238C
:102A900012930CA84FF40033159304F04BF808B1CF
:102AA000FFF7CEFE554B5648002400945A6C42F076
:102AB00080625A645A6C02F080620092009A01941B
:102AC0001A6B42F020021A631A6B02F02002019284
:102AD000019A02941A6B42F001021A631A6B02F017
:102AE00001020292029A03941A6B42F002021A63E4
:102AF0001A6B02F002020392039A04941A6B42F0DA
:102B000040021A631A6B02F040020492049A059480
:102B10001A6B42F004021A631A6B02F00402059267
:102B2000059A06941A6B42F008021A631B6B03F0B5
:102B30000803069302250E26069B0B964FF480632E
:102B400007A9CDE90735CDE9094502F02FFE41F689
:102B500058032C480B9607A9CDE907350927CDE97D
:102B6000094502F023FE032327480B9707A9CDE967
:102B70000735CDE9094502F019FE4FF4706322488C
:102B80000B9607A9CDE90735CDE9094502F00EFE00
:102B90004FF40C631D480B9607A9CDE90735CDE925
:102BA000094502F003FEC02319480B9607A9CDE999
:102BB0000735CDE9094502F0F9FD082315480B96C4
:102BC00007A9CDE90735CDE9094502F0EFFD4FF43E
:102BD000A0530E480B9707A9CDE90735CDE9094564
:102BE00002F0E4FD58202246052102F095FC582011
:102BF00002F0C4FC19B0F0BD00680140003802408A
:102C0000001402400000024000040240001802408C
:102C100000080240000C024010B5044688B014229F
:102C2000002103A821F091FE2268144B9A4223D17F
:102C300003F56843002101915A6C114842F4801257
:102C40005A645A6C02F480120192019A02911A6B32
:102C500042F020021A631B6B03F020030293029BD5
:102C60004FF4607202230321CDE903230523CDE94C
:102C7000061303A902F09AFD08B010BD00500140F0
:102C80000014024010B5044688B01422002103A8A5
:102C900021F05BFE2268144B9A4223D103F5943352
:102CA000002101915A6C114842F010025A645A6C8A
:102CB00002F010020192019A02911A6B42F0010295
:102CC0001A631B6B03F001030293029B4FF4C06273
:102CD00002230321CDE903230723CDE9061303A92A
:102CE00002F064FD08B010BD001001400000024079
:102CF0002DE9F04186B0002303932B4B1C68002C78
:102D00004FD14FF00108C3F80080284B00949A6B14
:102D1000274842EA08029A639B6B03EA0803009380
:102D2000022703260C25009B01A94FF63F03CDE99E
:102D30000137CDE9046502F039FD1E48059501A96A
:102D4000CDE90187CDE9034602F030FD48F23313A7
:102D50001948059501A9CDE90137CDE9034602F0EF
:102D600025FD4FF683731548059501A9CDE9013777
:102D7000CDE9034602F01AFD4CF2037310480595A5
:102D800001A9CDE90137CDE9034602F00FFD60232B
:102D90000C48059501A9CDE90137CDE9034602F0BC
:102DA00005FD06B0BDE8F0817C3D00200038024002
:102DB00000140240000802400018024000100240C7
:102DC000000C02400004024070B588B0002302935A
:102DD000204B1A6C42F010021A641B6C03F01003B3
:102DE0000293054601A903A8029B03F085FE069BFA
:102DF0004BBB03F061FE184E184B336040F2E733D3
:102E0000F360174BB0FBF3F3013B736030460023D4
:102E10003361B360B36104F0ADFC044680B9304661
:102E200004F07EFB044658B9362002F0A7FB0F2DB4
:102E30000DD822462946362002F06EFB094B1D6054
:102E4000204608B070BD03F037FE4000D3E70124F0
:102E5000F6E700BF00380240803D0020001000402F
:102E600040420F00840000207047FEE7FEE7FEE7C7
:102E7000FEE77047014804F091BB00BF803D002091
:102E8000014803F0FBBA00BFA83B0020014802F054
:102E9000BFBB00BFA43C00200120704708B521F053
:102EA00055FE162303604FF0FF3008BD08B521F032
:102EB0004DFE16230360FEE770B50D4614460E4620
:102EC000731B9C4201DC204670BDAFF3008006F806
:102ED000010BF5E770B50D4614460E46731B9C4278
:102EE00001DC204670BD16F8010BAFF30080F5E75A
:102EF0004FF0FF3070474FF400534B600020704795
:102F000001207047002070470A4A116808B503463F
:102F100009B9094911601068694603448B4206D912
:102F200021F014FE0C2303604FF0FF3008BD136046
:102F3000FCE700BFC83D0020B8590120704710B51C
:102F40000421044620F021F9204610BD08B50329CC
:102F50000FD8DFE801F00A02060A01F001F8406824
:102F600008BD00F0FDFF8068FAE700F0F9FF006897
:102F7000F6E70020F4E7000000487047EC6802081C
:102F80000C20704713B5002451B1036801948DF8EB
:102F9000034001AA9C680DF10303A04702B010BDD5
:102FA0000846FBE7C0897047008A7047C0887047B1
:102FB00080887047807A00F07F007047807AC0096F
:102FC00070470020704700009FED010A704700BF66
:102FD00000000000704710B50821044620F0D5F825
:102FE000204610BD7047704700F59873086849681F
:102FF00003C3704770477047416070477047704720
:10300000064BC0F84C310023C0F8503100F5A273D4
:10301000C0F84801C0F84031704700BFC130000817
:10302000012303727047704710B4C268416854109E
:10303000034601EB6200D20748BF0A599B685DF85E
:10304000044B48BFD35818470346406830B19A68CC
:103050001AB9D86800F0010070470120704710B518
:103060000C21044620F091F8204610BD10B5102127
:10307000044620F08AF8204610BD10B54FF4AE711A
:10308000044620F082F8204610BD10B50DF0C4F9BA
:103090000368BDE81040DB6B184710B50446D0F854
:1030A000400158B10368DB68984738B1D4F8400153
:1030B00003689B6898470023C4F8403110BD0000A6
:1030C0002DE9F14FD0E9556A0746B06803681B6ADD
:1030D000984742F2B353984205D8444B444AA3213F
:1030E000444821F009FA706803681B6A98470F2862
:1030F00003D8414B3E4AA421F2E7F06803681B6AFB
:1031000098470B2803D83D4B394AA521E8E70DF035
:1031100083F9DFF8F09004300DF0A3F9D9F800003E
:1031200010B10368DB689847D9F8000010B1036854
:103130001B689847DFF8D080D8F8000010B103680A
:103140005B699847D7F83C0110B103685B68984702
:10315000D8F8000010B103681B689847D7F83C0105
:1031600010B103689B689847F068036800215B6AA8
:1031700098474FF0000B224BC0F804B0044680F88B
:1031800008B00360B068036859465B6A9847054613
:1031900000F060FF7068036859465B6A98472946EB
:1031A000064600F027FF331DC7F83C61C9F8004010
:1031B000C8F80050CAF800302B68C6F808A02846A6
:1031C000DB68EE639847336830461B6898472146B2
:1031D00028460FF09FFB236820461B699847236809
:1031E0005B69204601B0BDE8F04F1847475F020811
:1031F000D55F0208A7600208EE600208916102082C
:10320000606A0208C04C0120BC4C0120044B1B68C2
:1032100093F858200AB1D86C00B99868704700BF7D
:10322000784C0120F8B5174604460E460DF0B6F965
:10323000124B1C60124B2360124B0025C4E9513520
:10324000114BC4E953551868036801219B68C4E910
:103250004F55C4E955769847284600F035FEFFF7EC
:10326000D5FF17F0AEFEFFF7D1FF17F025FFFFF7F0
:10327000CDFF17F02DFF2046F8BD00BFCC4C01203C
:103280000C6A0208F4690208784C0120064BC0F869
:103290004C310023C0F8503100F5A273C0F848014A
:1032A000C0F84031704700BFC1300008406A704725
:1032B000806A704770478A880B8810B5D20A4C889C
:1032C000C1699BB251F8220043EA0443184410BD7F
:1032D00010B50446BAB1107B68B1537BD27A1B0299
:1032E00003F4E0631A43236A03EB82031A888A42D9
:1032F00002D193F9020010BD05D8013880B2043321
:103300000028F3D1F7E70020F5E710B52C2104469B
:103310001FF03BFF204610BD30B58BB00446BDF812
:1033200060500895BDF85C5007959DF85050069583
:103330009DF84C5005959DF8485004959DF84450D3
:1033400003959DF8405002959DF83C500195BDF8BD
:10335000385000950EF06AFE064B2360159BE36122
:10336000169B2362199B63621A9BA36220460BB0D3
:1033700030BD00BF846A0208806A7047704770479A
:1033800070477047704730B5036885B06D4601815E
:10339000D3F88430014604462846984795E807004C
:1033A0003C3484E8070005B030BD30B5036885B013
:1033B0006D464181D3F8843001460446284698473B
:1033C00095E807003C3484E8070005B030BD0022D2
:1033D000028042808280C280704780F83610704739
:1033E00070B5036804461B6B154698472368294649
:1033F00020465B6EBDE87040184700207047806C27
:1034000070477047704770477047704730B4C26864
:1034100044685510034604EB6200D20748BF625966
:103420009B6830BC48BFD35818470346406830B14A
:103430009A681AB9D86800F00100704701207047F7
:1034400090F82D3080F85C3070470146343091F8A8
:103450002C3013B162310AF0CFBB6031FBE710B5FD
:103460004C2104461FF091FE204610BD10B564218A
:1034700004461FF08AFE204610BD10B510210446F8
:103480001FF083FE204610BD10B5034B03600446B9
:103490000BF0C8FA204610BD346C020810B5064B7C
:1034A000036004460BF0BEFA204641F27C211FF077
:1034B0006CFE204610BD00BF346C020808B5FEF754
:1034C000DFFC08BD10B50446006B50B10368DB6833
:1034D000984730B1206B036821469B68BDE81040D7
:1034E000184710BD00F57E728A4202D10368DB6A7C
:1034F00018477047036870B55E6B124B1B68044633
:103500008DB22BB9104B114A6C21114820F0F4FFF9
:103510001049828D0988914203D80F4B0B4A6D21C7
:10352000F3E713F812200D4B1B6853F822000368D1
:103530001B6B9847291A3346204609B2BDE87040F4
:10354000184700BFD04C012034620208766202089E
:10355000B1620208D44C0120F8620208D84C012064
:103560000B7970B590F82C6004460D460BB916B176
:1035700070BD002EFCD0B3FA83F35B0984F82C30C5
:1035800023682046D3F88C309847236820465B692F
:103590009847002EECD02B79012BE9D123682046E7
:1035A000D3F88830BDE87040184700224FF0FF3153
:1035B000C0E9002182607047074A02600022C0E92A
:1035C0000122C0E90322C0E90522C0E907224FF425
:1035D00080728284704700BF2073020870B5036850
:1035E00004461B6B154698472368294620465B6BAB
:1035F000BDE87040184770B5036804469B6B1546DC
:103600009847236829462046DB6BBDE87040184781
:1036100038B504461D46FFF7E1FFBDF910202946E5
:103620002046FFF7E8FF38BD0B8870B5A0F8603082
:103630000546138825F8623F0446284610F026FD0B
:103640000646284610F056FD314602462046FFF752
:10365000D2FF23682046D3F88C30BDE8704018476D
:1036600010B526220446002121F06FF92046FFF70D
:10367000A3FF044B2360FF2384F826300023A362BA
:10368000204610BD8071020838B5262204460D463A
:10369000002121F05AF92046FFF78EFF064B2360E8
:1036A0002B88E384FF23204684F8283029460AF03B
:1036B000A3FA204638BD00BF5072020810B526227A
:1036C0000446002121F041F92046FFF775FF0A4B1F
:1036D00023600A4BA3624FF6FF73A3854FF47F026A
:1036E0000023C4E90C3223874FF0FF32C4E91023D2
:1036F000E363204610BD00BFF0700208E4690208D1
:103700002DE9F04F044699B00EF058FF22460025EF
:10371000DB4BE56342F8403B10460C92FFF7A0FFFD
:1037200004F16C034FF6FF7616A918460793ADF81F
:103730005860FFF7A9FF04F1980316A918460893EB
:10374000ADF85860FFF7A0FF04F1C40316A91846AE
:103750000993ADF85860FFF797FF04F1F00316A93D
:1037600004F58E791846C74F0A93ADF85860FFF7F5
:103770008BFF484609F07CFB04F5C67307F1240A69
:10378000184604F5D0780F93FEF7A8FBC4F88C71A7
:10379000C4F894A1C4F89851404609F069FB04F5B7
:1037A000047318460E93FEF799FB04F50973184647
:1037B000C4F81072C4F818A2C4F81C52DFF8E8A2CA
:1037C000049304F51C77FFF779FFC4F824A2C4F82A
:1037D0006C523846FFF7F0FEAB4BC4F8703204F57C
:1037E00027731846C4F898520D93FFF739FFA74B7B
:1037F000C4F89C3204F534731846C4F8C852A4F8CF
:10380000CC5204F5467B0293FFF758FF5846FFF76A
:1038100055FF04F55973C4F818A31846C4F860534B
:103820000593FFF74BFF04F56C73C4F864A31846C7
:10383000C4F8AC530393FFF741FF04F57E731846B9
:103840000693FFF7B9FE4FF47F43A4F82434904B5E
:10385000C4F8F8334FF0010A04F22C43184616A9B5
:10386000C4F82054C4F8285484F81CA40B93ADF871
:103870005860FFF709FF2A460B98A4F85864A4F88B
:103880005A642946FFF7AAFE0B99069806F0A8FA93
:10389000804A04F58053C3E99B247F4A4FF4616159
:1038A000C3E99D2504F25C400BF0B2F84FF4A0731D
:1038B0002A460C9800932946F023FFF7A9FE261DFF
:1038C0004FF07F43A3660C99304606F089FA2A46EA
:1038D00007982946FFF782FE0798ADF8585016A9B9
:1038E0000AF08AF90799304606F07AFA2A460898CB
:1038F0002946FFF773FE0898ADF858A016A90AF0FC
:103900007BF90899304606F06BFA2A460998294651
:10391000FFF764FE02230998ADF8583016A90AF0A3
:103920006BF90999304606F05BFA2A460A9829464F
:10393000FFF754FE03230A98ADF8583016A90AF091
:103940005BF90A99304606F04BFA4FF4A0730093E6
:103950002A46F02329464846FFF75AFE4F4BC4F843
:1039600098314FF47843A4F89C310F9BC4F844314C
:103970004FF407522946484609F090FB4FF407528E
:103980004FF4F051484609F094FBD4F85831402BDD
:1039900005D04023C4F85831484609F089FA01217E
:1039A000484609F091FB7F2384F84231494630466E
:1039B00006F016FA00224FF4A07311460093404619
:1039C000F023FFF725FE364BC4F81C324FF2E053CC
:1039D000A4F820320E9BC4F8C83142F2E0424FF402
:1039E0007061404609F05AFB4FF4B4620021404632
:1039F00009F05FFBD4F8DC31402B05D04023C4F83C
:103A0000DC31404609F054FA4046012109F05CFBE4
:103A10004146304606F0E4F90498DFF890A04FF4F0
:103A20009872D121FFF7DAFD1E4BC4F85432D4F856
:103A300024320499D3F8843010AD4FF000082846A2
:103A4000A4F85882984795E80700049BCDF858A041
:103A50003C3383E807000498ADF85C8016A909F0B0
:103A60006FFF4FF0E5090499304606F0B9F9CDF83B
:103A700000903846B22323221F21FFF7C9FD17E02B
:103A8000346C0208546E0208746D0208E871020872
:103A90007C6B02081C6C0208E53400080000FFFF84
:103AA00000BCF0FF00BCEBFFEC6A0208E46902080E
:103AB0000D98CDF8009042464146B223FFF7A8FD8D
:103AC000664A674B0D99C4E9B1230623A4F8CC32AA
:103AD000384606F085F902984E221721FFF77EFD41
:103AE000604B0299C4F800332846A4F8048309F017
:103AF0008DFC95E80700029BCDF858A03C3383E885
:103B0000070001230298ADF85C3016A909F018FFF0
:103B10000299384606F064F92C2258462E21FFF708
:103B20005DFD514BC4F84833D4F81833A4F84C83E6
:103B300059462846D3F88430984795E807000BF19A
:103B40003C094FF0040389E8070084F85133D4F8A6
:103B5000183359462846D3F88430984795E807002B
:103B60004FF0040389E8070016A95846ADF85C3009
:103B7000CDF858A009F0E4FE5946384606F030F971
:103B8000059869222E21FFF729FD384BC4F894339C
:103B9000D4F864330599D3F88430A4F89883284680
:103BA000984795E80700059BCDF858A03C3383E87B
:103BB000070003230598ADF85C3016A909F0C0FE94
:103BC0000599384606F00CF9039811223621FFF7C3
:103BD00005FD274B0399C4F8E0332846A4F8E48395
:103BE00009F014FC95E80700039BCDF858A03C337E
:103BF00083E8070002230398ADF85C3016A909F0AA
:103C00009FFE0399384606F0EBF805230698ADF8B9
:103C1000543016AA092315A9ADF85830FFF704FD52
:103C20000B9842464146FFF7D9FC04F593530C33F9
:103C3000C4F828343C2300938F2206983B21FFF7D9
:103C4000E7FC0699384606F0CBF83046394606F0D0
:103C5000C7F8204619B0BDE8F08F00BF69A3B2FFD6
:103C6000456C8CFF2D2DB5FF00C431FF0000CFFF48
:103C70000A8A0AFF7047000030B5164D2C6814F010
:103C800001048FB0BFF35B8F20D128461FF07FFA6D
:103C9000E0B13F230993104B0893104B1049114892
:103CA0000A940122CDE906430423CDE903320A2315
:103CB0000093CDE90B44CDE901440594FFF72CFBBB
:103CC000094820F037FC28461FF06DFA05480FB070
:103CD00030BD00BFCC3D002098800208A4800208BF
:103CE000EC7F0208D03D0020753C000870470000C2
:103CF00030B5164D2C6814F001048FB0BFF35B8F04
:103D000021D128461FF043FAE8B13F230993104B15
:103D10000893104B104911480A94CDE9064301223B
:103D20000423CDE90332142300930A22CDE90B4486
:103D3000CDE901440594FFF7EFFA094820F0FAFBBA
:103D400028461FF030FA05480FB030BDFC3D00207A
:103D50009C800208A8800208FC7F0208003E002028
:103D6000ED3C00087047000030B5164D2C6814F08B
:103D700001048FB0BFF35B8F20D128461FF007FAF4
:103D8000E0B13F230993104B0893104B10491148A1
:103D90000A940122CDE906430423CDE90332282306
:103DA0000093CDE90B44CDE901440594FFF7B4FA43
:103DB000094820F0BFFB28461FF0F5F905480FB071
:103DC00030BD00BF2C3E0020A0800208AC8002085D
:103DD00088800208303E0020653D000800207047C2
:103DE000002070470EB403B503AB002153F8042B39
:103DF00001930DF099FB02B05DF804EB03B070473E
:103E00000CB407B504AB53F8042B01930DF08CFBF5
:103E100003B05DF804EB02B070470000436C10B5CE
:103E2000044673B3038F2BB9184B194AC52119489F
:103E300020F062FBC38E00EB43035B8C0BB30FF0EF
:103E4000C2FA238F012B03D8134B144ACB21EEE780
:103E5000E28E531C9BB2092B194688BFA3F10A01BD
:103E600004EB410140F63F10498C814209D10A2BF5
:103E700004EB420228BF002304EB4303508C588418
:103E800051842046BDE810400FF0A0B93663020807
:103E90003F630208EA6302083464020842640208CD
:103EA0000FF05BB910B586B002AC84E806001A4684
:103EB0000AAB05930193099B00932146089B0BF0E5
:103EC00049FE06B010BD000038B518BB124B1348B0
:103ED0001C681349B4B1226822440260626822441B
:103EE0000A60A26814440F4B00221A8000F038F8D0
:103EF000054600F033F80C4B1C600C4B1D600C4B5E
:103F0000188007E00B4B03600B4B0B600B4B1C68DE
:103F1000002CE8D138BD00BF683E0020603E002084
:103F20005C3E0020643E0020D04C0120D84C012093
:103F3000D44C0120C4800208B0800208E08002084E
:103F4000044B1B6853F82100034B1B6803EB400034
:103F5000704700BF5C3E0020603E00200520704797
:103F6000004870476C3E002010B5FFF7C1FE044CBE
:103F70002060FFF7F9FE6060FFF77EFEA06010BDD5
:103F80006C3E002010B5002404600C6014601C60BE
:103F900010BD704710B54FF4AE7104461FF0F5F830
:103FA000204610BD10B50446D0F8580100F013F8B3
:103FB0002046BDE810400CF0B1BA000010B5044630
:103FC000FFF730F9014B2360204610BD6C6C0208EE
:103FD000002202607047704770470438704770478E
:103FE00010B5102104461FF0D0F8204610BDA0F1F6
:103FF0000400F5E700228260024A02601832426043
:10400000C1607047C06C0208704700000A4B70B571
:104010000446036042F2E01541F26826B54205D03D
:10402000635960191B6898472C3DF7E72046FFF756
:104030002BFA204670BD00BFE86C020810B504469C
:10404000FFF7E4FF204642F2B4511FF09EF82046ED
:1040500010BD00002DE9F743064606F58057FFF72F
:104060004FFB334B336006F594541E2306F5085876
:10407000C7F87C32143408F10C084FF6FF7504F5CC
:10408000C679204601A92C34ADF80450FFF7FCFA9C
:104090004C45F6D14445F2D106F5125001A9303015
:1040A000ADF80450FFF7F0FA06F5135001A91C30E3
:1040B000ADF80450FFF7E8FADFF878C006F5005EC7
:1040C000DCF80000DCF804100EF5A66303C30CF165
:1040D0000C05DCF8080018600FCD06F515540FC468
:1040E0000FCD0FC495E80F000CF13C0584E80F00DC
:1040F0000FCD0EF5AE640FC40FCD0FC495E80F00C1
:104100000CF16C0C84E80F009CE80F000EF5B46411
:1041100084E80F00002387F884320323CEF83C356F
:1041200030460123C7F8903203B0BDE8F08300BFEA
:10413000E86C0208A05902082DE9F04F284B85B021
:1041400000F5945700F5085600F512551B1A143760
:104150000B3604354FF00008019318F0010F0CBF27
:104160004FF0080B4FF0090BB2463C464FF00009E8
:10417000019A236832F81A201B6EADF80C202046F5
:1041800003A998472868FCF7EFF9164B0022FCF7C3
:104190008BF841EC100B1FF011FA51EC100BFCF7EF
:1041A000EBFC2368B4F904109B6D02B209F101091C
:1041B000204698471AF8013F84F82530CB4504F192
:1041C0002C04D5DC08F10108B8F10A0F07F5C67711
:1041D00006F1090605F10405BFD105B0BDE8F08F71
:1041E00050DEFFFF00002D4000F5805393EDA07AD4
:1041F00000F5125300F5125004332C30D3ED007A41
:1042000077EE877AE3EC017A8342F7D170470000BA
:10421000D0B5BB4B1B882DED048B08EE903AB94B03
:104220009FEDB99A1B8808EE103AB8EEC88AF8EEEE
:10423000E88A38EE498A78EEC98A68EE087A044638
:10424000E8EEA87A04F5005417EE900AFCF78CF912
:1042500041EC100B1EF0C1FF94F80835012B57EC10
:10426000106B18D0022B00F006818BB9F1EE047AA6
:10427000B4EEE78AF1EE10FA03DD012384F8083585
:1042800006E004F5A36204F21C54002313602360CB
:10429000BDEC048BD0BDF5EEC08AF1EE10FA4CBF38
:1042A000B1EE687AB0EE687AF1EE047AB4EEE77AAD
:1042B000F1EE10FA7DD8B5EEC08AF1EE10FA73D5A2
:1042C000F9EE047AB4EEE78AF1EE10FAE0DB8F4BF8
:1042D0001B8808EE903A8E4B1B8808EE103AF8EED9
:1042E000E88AB8EEC88A78EEC98A38EE498AC8EEFC
:1042F000287AF5EEC07AF1EE10FA01D5F1EE677A80
:1043000017EE900AFCF730F97BA3D3E90023FCF702
:10431000F5FB002800F09780F5EEC08AF1EE10FA68
:10432000B3EE098A40F19680DFED7A8A68EE087A6A
:10433000B1EE488AE8EEA87AF1EE688A17EE900AA4
:10434000FCF712F941EC100B1EF047FF51EC100B7B
:10435000FCF73AFC07EE900A88EEA77A04F5A3630F
:10436000C8EE278A9FED6C8A83ED007A67EE087AA3
:1043700004F21C5317EE900AC3ED008AFCF7F4F820
:10438000664B0022FBF792FFFCF7F6FBDFED647A49
:10439000C4F82805E8EE887AFDEEE77A17EE903A41
:1043A000C4F82C35022369E7B4EEE78AF1EE10FA7F
:1043B0008DD9B5EEC08AF1EE10FA7FF769AFC8EE7D
:1043C000287AF5EEC07AF1EE10FA48BFF1EE677A7E
:1043D00017EE900AFCF7C8F847A3D3E90023FCF7CF
:1043E0008DFBD0BB30463946FCF7EEFB07EE900A5A
:1043F000F1EE688A88EEA77A04F5A363B1EE488AE5
:10440000C8EE278A9FED448A83ED007A67EE087A2A
:1044100004F21C5317EE900AC3ED008AFCF7A4F8CF
:104420003E4B0022FBF742FFFCF7A6FBDFED3C7A98
:10443000C4F82805E8EE887AFDEEE77A17EE903AA0
:10444000C4F82C3524E7B5EEC08AF1EE10FA3FF639
:104450006DAF1DE7DFED338A68E7F5EEC08AF1EE58
:1044600010FA4CBFDFED2B8ADFED2E8ADFED2E7ABE
:10447000B3EE098ABCE704F5A26393ED008A18EE57
:10448000100AFCF771F8294B002206460F46FBF78D
:104490000DFF274B0022FCF745FB50B9234B0022B0
:1044A00030463946FBF700FF00220023FCF730FBC3
:1044B00038B104F5A363D3ED007AF1EE677AC3ED6A
:1044C000007A04F5A46393ED007A04F5A363D3EDB9
:1044D000007AA7EE878A04F5A26383ED008A04F2CE
:1044E0001C5304F21454D3ED006AD4ED007AE7EEC5
:1044F000267AC4ED007ACBE6ABAAAAAAAAAACA3F3A
:104500001A000020180000200000FF4216000020C2
:10451000140000200000F0C20000164300005E40BE
:10452000008093430000F0422C27F54200002A400F
:1045300000006E40F7B500F5005400F51255303517
:10454000B4F80A35ADF8043001A9284609F054FB47
:1045500004F5A26304F214541868FCF705F8124B32
:104560000022FBF7A1FE41EC100B1FF027F820689A
:1045700057EC106BFBF7F8FF0C4B0022FBF794FE97
:1045800041EC100B1FF01AF851EC100BFCF7F4FA89
:10459000394604B23046FCF7EFFA224601B228460B
:1045A000FDF7C1FB03B0F0BD00002A4000002D4024
:1045B00007B500F5005300F51350B3F80C35ADF80E
:1045C000043001A91C3009F017FB03B05DF804FBAF
:1045D00000F5005393F80825013A012A09D8D3F8C9
:1045E0002C25D3F828155201490100F5D07008F0A8
:1045F00060BD7047044A054B11881B888B4238BF49
:104600000B461380704700BFC03A0020C23A00201A
:1046100030B50A4B0A4A1B8887B001AD0446142105
:1046200028460FF079FC0123C4F86C5284F8493213
:1046300004F509700DF0A2F807B030BDC23A0020B1
:104640001465020830B5104B104D1B8887B0044626
:104650002A46142101A80FF05FFC01ABC4F86033B7
:104660000B4B2A4614211B8801A80FF055FC01AB07
:10467000C4F86033012384F8953204F51C700DF002
:104680007DF807B030BD00BFC23A002014650208B3
:10469000C03A002010B500F58054D4EDA27A9FED09
:1046A000080AF8EE677A27EE800A1EF0C5FD9FED36
:1046B000057AF7EE007AE0EE477AC4EDA07A10BDF5
:1046C000ACC527B7EC51783F00F580530549D3F8C6
:1046D000902243F2390001FB020020F00040C3F8B1
:1046E000900270476D4EC64110B50446FFF7ECFFCF
:1046F00004F50053D3F83C35B0FBF3F202FB13038F
:1047000003F59453183334F8130010BD73B500F556
:10471000005505F5A2661B4B336005F214531A4A87
:104720001A6005F5A4634FF080421A60002385F8F3
:1047300008350446FFF7D8FF04F512543034A5F8C5
:104740000A05ADF8040001A9204609F055FA3068C1
:10475000FBF70AFF0D4B0022FBF7A6FD41EC100B07
:104760001EF02CFF51EC100BFCF706FA40F2191268
:1047700001B22046FEF732FF012385F8D53402B09E
:1047800070BD00BF0000F0420080934300002A404B
:1047900038B50446FFF7A8FF04F500554FF48C72B6
:1047A000A5F80C0504F513500A211C30FEF716FF7E
:1047B000012385F8013538BD2DE9F04F2DED048B2F
:1047C00000F58053474A9FED488A85B000F5005AAE
:1047D000C3F88022454BDAF8AC541B1A0646F0EEBB
:1047E000488AB3EE0D9A0193B4EE688AF1EE10FA9E
:1047F00074D1DAF8AC341D205843FBF7A3FE3C4BD0
:104800000022FBF753FDFCF7DFF908EE100A06EB78
:10481000850909F5005909F2844383ED008A4FF4B4
:10482000C67405F0010305EBC507002B04FB056406
:1048300007F508570CBF0823092304F5945407F122
:104840000B07009304F114040CBF4FF010084FF055
:10485000030837444FF0000B3046FFF745FF019B3C
:10486000ADF80C0023F81700236820461B6E03A93F
:10487000984709F284431868FBF776FE1C4B002228
:10488000FBF712FD41EC100B1EF098FE51EC100BE3
:10489000FCF772F9236802B29B6D0FFA88F120468B
:1048A0009847012307F8013F9B4484F82530009B7B
:1048B00008F11A089B4504F12C041FFA88F8CBD1A3
:1048C0006B1E58BF1D46DAF8AC3448BF0935AB4201
:1048D0008AD105B0BDEC048BBDE8F08F38EE498A73
:1048E00095E700BF8FC2F53C0080934350DEFFFF89
:1048F00000002D4070B50026044680F8956200F552
:104900001C7004F580550CF039FF2046FFF780FE3F
:10491000012385F8843204F500530422C3F8AC2443
:104920000E4A16800322C3F83C250D4AC5F88022A2
:10493000C5F88862C3F8B06503F056F9C5F890026F
:104940002046FFF739FF2046FFF7E0FE2046FFF73D
:104950001FFF03F049F9C5F88C0270BDC23A002070
:104960008FC2F53C00F50052034692F80825013A43
:10497000012A94BF0122002200F5D07083F8C521DE
:1049800008F086B80000000070B5044603F033F963
:1049900004F58055D5F87C32B0FBF3F603F024F92A
:1049A000D5F88C32C01AB04221D995F8843233B987
:1049B0002046FFF71FFEBDE87040FFF743BE04F539
:1049C0000053D3F8AC3403F5126304EB8303586847
:1049D000FBF7CAFD1C4B0022FBF768FC18A3D3E9C8
:1049E0000023FCF7A9F818B1002385F8843270BDC4
:1049F0002046FFF7F9FB2046FFF70AFC2046FFF7A9
:104A0000E7FD2046FFF746FE2046FFF795FB2046D0
:104A1000FFF790FD2046FFF7CBFD2046FFF7A2FFF2
:104A20002046FFF7F5FD201D0CF0A8FED5F88832D2
:104A30000133C5F8883203F0D7F8C5F88C02D6E701
:104A40000000000000E0704000002D402DE9F84F0C
:104A50000446261D04F51C7804F51257FEF7D5FC14
:104A600030374146304605F0FCF904F50059394627
:104A7000304605F0B5F90025384604F513571C37C4
:104A800089F8D5540CF07AFE3946304605F0A8F97D
:104A900089F8015538460CF071FE04F5945A0AF174
:104AA000140A40F6787B0AEB050900274946304690
:104AB000013705F095F9092F09F12C09F6D105F513
:104AC000C6755D45EFD1002504F5D07084F8C55159
:104AD00007F0DEFF04F5097084F849520CF04EFE31
:104AE00041463046BDE8F84F05F07AB9F0207047EE
:104AF0004FF4A07070472920FDF748BE2820FDF72D
:104B000045BE08B5FDF716FECA20FDF73FFEC320DF
:104B1000FDF720FE0820FDF71DFE5020FDF71AFED0
:104B2000CF20FDF733FE0020FDF714FEC120FDF776
:104B300011FE3020FDF70EFEED20FDF727FE64206C
:104B4000FDF708FE0320FDF705FE1220FDF702FE2B
:104B50008120FDF7FFFDE820FDF718FE8520FDF719
:104B6000F9FD0020FDF7F6FD7820FDF7F3FDCB20E1
:104B7000FDF70CFE3920FDF7EDFD2C20FDF7EAFDD9
:104B80000020FDF7E7FD3420FDF7E4FD0220FDF7EE
:104B9000E1FDF720FDF7FAFD2020FDF7DBFDEA201F
:104BA000FDF7F4FD0020FDF7D5FD0020FDF7D2FD57
:104BB000B120FDF7EBFD0020FDF7CCFD1B20FDF73C
:104BC000C9FDB620FDF7E2FD0A20FDF7C3FDA220D6
:104BD000FDF7C0FDC020FDF7D9FD1020FDF7BAFD9F
:104BE000C120FDF7D3FD1020FDF7B4FDC520FDF772
:104BF000CDFD4520FDF7AEFD1520FDF7ABFDC7202F
:104C0000FDF7C4FD9020FDF7A5FD3620FDF7BEFDA4
:104C1000C820FDF79FFDF220FDF7B8FD0020FDF74D
:104C200099FDB020FDF7B2FDC220FDF793FDB6203F
:104C3000FDF7ACFD0A20FDF78DFDA720FDF78AFDED
:104C40002720FDF787FD0420FDF784FD2A20FDF7CE
:104C50009DFD0020FDF77EFD0020FDF77BFD00207F
:104C6000FDF778FDEF20FDF775FD2B20FDF78EFD9C
:104C70000020FDF76FFD0020FDF76CFD0120FDF722
:104C800069FD3F20FDF766FDF620FDF77FFD012061
:104C9000FDF760FD0020FDF75DFD0620FDF75AFDE4
:104CA0002C20FDF773FDC820FDF7BEFD2620FDF783
:104CB0006DFD0120FDF74EFDE020FDF767FD0F20A3
:104CC000FDF748FD2920FDF745FD2420FDF742FDB5
:104CD0000C20FDF73FFD0E20FDF73CFD0920FDF700
:104CE00039FD4E20FDF736FD7820FDF733FD3C20E1
:104CF000FDF730FD0920FDF72DFD1320FDF72AFDFE
:104D00000520FDF727FD1720FDF724FD1120FDF7F5
:104D100021FD0020FDF71EFDE120FDF737FD0020FD
:104D2000FDF718FD1620FDF715FD1B20FDF712FD00
:104D30000420FDF70FFD1120FDF70CFD0720FDF706
:104D400009FD3120FDF706FD3320FDF703FD42206C
:104D5000FDF700FD0520FDF7FDFC0C20FDF7FAFC3A
:104D60000A20FDF7F7FC2820FDF7F4FC2F20FDF7C3
:104D7000F1FC0F20FDF7EEFC1120FDF707FDC82028
:104D8000FDF752FD2920FDF701FDBDE808402C206C
:104D9000FDF7FCBC08B5FDF7CDFC0321D320FDF7E2
:104DA00011FD80B208BD10B5C4B202220321204615
:104DB000FDF776FC0A20FDF7BBFC2046002203210C
:104DC000FDF76EFCBDE810400220FDF7B1BC38B520
:104DD0000446E4B2FDF762FC00212046FDF778FCB2
:104DE000012105462046FDF773FC40EA052080B20C
:104DF00038BD10B5C4B240212046FDF769FC03065A
:104E000007D54C212046FDF763FC003818BF012070
:104E100010BD01224B212046FDF742FC2046002216
:104E20004B21FDF73DFC0020F2E773B50423C4B22B
:104E30000E461546D7210DEB03022046FDF762FC16
:104E4000019B1BBA1A0DC3F30B23328020462B8023
:104E500001224B21FDF724FC00224B212046FDF7C7
:104E60001FFC02B070BD000010B50A4A13789842CA
:104E700004460DD0517888420AD00BB141B90123C4
:104E8000D454FDF70BFC2046BDE81040FFF78BBF64
:104E900010BD00BF783E002010B5C4B209212046E5
:104EA000FDF716FC40F00102D2B220460921BDE810
:104EB0001040FDF7F5BB10B5C4B209212046FDF73F
:104EC00007FC092100F0FE022046BDE81040FDF776
:104ED000E7BB38B5C4B20D4620460A21FDF7F8FB02
:104EE00040EA0502D2B220460A21BDE83840FDF76B
:104EF000D7BB10B50446FDF7D2FB20461F21FFF7B4
:104F0000E8FF2046BDE81040FFF7C6BF38B5C4B281
:104F10000D4620460A21FDF7DBFB20EA0502D2B24E
:104F200020460A21BDE83840FDF7BABB10B504465B
:104F3000FFF7C1FF20461F21BDE81040FFF7E6BF85
:104F400010B5C0B20C460B21FDF7C2FB204010BDCE
:104F50001F21FFF7F5BF0A46C0B20B21FDF7A0BB2A
:104F60001F21FFF7F8BF38B5C4B20D462046172100
:104F7000FDF7AEFB20EA0502D2B220461721BDE8BC
:104F80003840FDF78DBB70B5C4B2064604212046FB
:104F9000FDF79EFB042100F0FB0205462046FDF7CD
:104FA0007FFB3046F021FFF7DEFF05F0F8022046D8
:104FB0000421FDF775FB492220212046FDF770FBF7
:104FC0000220FDF7B5FB204601222121FDF768FBF9
:104FD00020469A224121FDF763FB204601224A2107
:104FE000FDF75EFB204601224B21FDF759FB2046D1
:104FF00000224B21FDF754FB204601225621FDF7EC
:105000004FFB204601225821FDF74AFB2046012292
:105010004021FDF745FB2046FF220B21FDF740FB19
:10502000BDE870400220FDF783BB0000054BD3F8BC
:10503000882042F47002C3F888204FF000629A6022
:10504000704700BF00ED00E008B50B4B1A6842F452
:1050500000721A601A6842F480621A601A6842F498
:1050600080721A60032000F045FA0020FDF7ACFEC4
:10507000FDF7E8FB002008BD003C0240034A044B5A
:1050800011681B780B441360704700BF7C3E002002
:1050900080000020014B1868704700BF7C3E002054
:1050A00038B50446FFF7F6FF631C1CBF054B1B78A1
:1050B000054618BFE418FFF7EDFF431BA342FAD3E0
:1050C00038BD00BF8000002038B50446002800F03D
:1050D0009B80056C25B9FDF7D5FB656484F83C50D1
:1050E000236CDB0600F18E80236C23F4885323F0BD
:1050F000020343F002032364444B5A6822F4403213
:105100005A605A6861680A435A60236821695A687C
:1051100022F480725A605A6842EA01225A605A6840
:10512000A16822F040725A605A680A435A609A682D
:10513000E16822F400629A609A680A439A603449EE
:10514000A26A8A4252D0996821F070619960996888
:105150000A439A609A68E16A22F040529A609A681B
:105160000A439A609A6822F002029A609A68217E45
:1051700042EA41029A6094F82020002A3ED05A6800
:10518000616A42F400625A605A6822F460425A60CE
:105190005A68013942EA41325A60DA6AE16922F416
:1051A0007002DA62DA6A013942EA0152DA629A6816
:1051B00022F400729A609A6894F8301042EA412210
:1051C0009A609A68616922F480629A609A68002005
:1051D00042EA81229A606064236C23F0030343F067
:1051E00001032364002384F83C3038BD9A6822F020
:1051F00070629A609A6822F04052B2E75A6822F4CC
:105200000062C9E70120EDE70120EEE7002301403D
:105210000100000F82B00023019390F83C30012B75
:1052200069D0012380F83C3003689A68D2070BD517
:105230009A68D1071AD4036C43F010030364436CDB
:1052400043F0010343644CE09A682C4942F00102A8
:105250009A602B4A1268B2FBF1F202EB4202019211
:10526000019A002AE4D0019A013AF8E7026C22F48C
:10527000E06222F0010242F4807202645A68520530
:1052800041BF026C22F4405242F480520264026C2C
:1052900012F480521CBF426C22F0060242640022CB
:1052A00080F83C206FF022021A60164A516811F013
:1052B0001F0F15491CD18B4207D001F580718B421D
:1052C0000CD1526812F01F0F0BD19A6812F0405F98
:1052D00007D19A6842F080429A6002E00B498B4203
:1052E00002D0002002B07047526812F0100FEBE7B6
:1052F0008B42F6D1E9E70220F4E700BF40420F00FD
:105300007C000020002301400020014000220140D9
:1053100003689A68520570B504460D460BD59B6824
:10532000DE0508D5036C43F020030364002380F8F6
:105330003C30012070BDFFF7ADFE064623681A68B9
:1053400091070CD56FF012021A60226C42F40072C1
:1053500022649A6812F0405F17D00020EAE7681CC8
:10536000EDD065B923681B6813F00203E6D1226C07
:1053700084F83C3042F0040222640320DAE7FFF7AD
:1053800089FE801BA842EDD8D8E7227E002AE4D10E
:10539000DA6A12F4700F02D09B685A05DDD4236CD0
:1053A00023F480732364236CDB04D6D4236C43F092
:1053B00001032364D1E70368D86C7047F7B5002375
:1053C000019390F83C30012B054600F086800123C4
:1053D00080F83C3008682B688E68092884B233D97D
:1053E00004EB4402DF681E3A4FF0070C0CFA02FC93
:1053F00027EA0C07DF60DF6806FA02F23A43DA6058
:105400004968062901EB81022DD8596B053A1F2600
:10541000964021EA06015963596B04FA02F20A43E5
:105420005A632F4A93420AD1122837D12D4B5A681A
:1054300022F400025A605A6842F480025A60002046
:1054400085F83C0003B0F0BD1A6900EB400C07275B
:1054500007FA0CF722EA07021A611A6906FA0CF633
:1054600016431E61CCE70C294FF01F010BD81E6BB1
:10547000233A914026EA01011963196B04FA02F2FA
:105480000A431A63CDE7DE6A413A914026EA0101F8
:10549000D962D96A94400C43DC62C2E7124B98424D
:1054A00001D01128CBD10F4B5A6822F480025A60E8
:1054B0005A6842F400025A600B4B9842BFD10B4B22
:1054C0000B4A1B68B3FBF2F30A2253430193019B7F
:1054D000002BB4D0019B013BF8E70220B2E700BFEC
:1054E0000020014000230140120000107C00002039
:1054F00040420F000749CA6822F4E0620302120426
:1055000003F4E063120C134343F0BF6343F400332E
:10551000CB60704700ED00E0164B30B5DC68C4F39B
:105520000224C4F10703251D042B28BF0423062DE4
:105530004FF0FF358CBF033C002405FA03F321EA4A
:105540000303A54022EA0502A340002843EA020320
:10555000ACBF00F16040084A4FEA0313B8BF00F047
:105560000F00DBB2AABF00F56140135480F800338E
:1055700030BD00BF00ED00E014ED00E0002807DBC7
:10558000044A4109012300F01F00834042F8213002
:10559000704700BF00E100E010B5044650B1437908
:1055A00003F0FF0213B90271FDF7C4F9012363711F
:1055B000002010BD0120FCE710B5044620B390F890
:1055C000393003F0FF021BB980F83820FDF7CAF923
:1055D000022384F83930236861681A6822F4403263
:1055E0000A431A605A6BA16822F007020A435A6301
:1055F0001A6CE1686FF30D020A431A64002001235C
:10560000E06384F8393010BD0120FCE77047704733
:10561000036870B55E681D68F207044614D5E90595
:1056200012D51A6822F480721A60C26B42F001022D
:10563000C26301229A60042380F83930002380F885
:105640003830436903B19847B20616D5AB0414D578
:1056500023681A6822F400521A6020229A60E36BD1
:1056600043F00203E363042384F83930002384F811
:10567000383063690BB120469847300716D52905A5
:1056800014D523681A6822F400621A6008229A600E
:10569000E36B43F00403E363042384F8393000230D
:1056A00084F8383063690BB12046984772070BD5F0
:1056B0006B0509D523681A6822F480621A600422F7
:1056C0009A602046FFF7A2FFB00714D5A90512D5AE
:1056D00023681A6822F400721A6002229A60E36B4F
:1056E000E363012384F83930002384F838302369D8
:1056F0000BB120469847F20613D5EB0411D5236869
:105700001A6822F480521A6010229A60E36BE363F5
:10571000012384F83930002384F838302046FFF71D
:1057200076FF70BDF0B590F83820012A03464FF09F
:1057300002002BD0012283F8382083F8390003EBD4
:105740000112D2E90740556A174F44EA0040093C6C
:10575000012C9CBF05F07F4210434FEA01161A68E6
:1057600088BF40EA056091B9516A394001435162EE
:10577000012C9969916103D8596A21F07F419162A6
:105780000122002083F8392083F83800F0BDD16968
:1057900039400143D1619919012C896911619CBF7C
:1057A00025F07F451562EBE7F0FFFC002DE9F74F90
:1057B000DFF8BC916C4A00230D6801249C4004EA88
:1057C0000506AC4340F0B7804D68032705F003049D
:1057D0004FEA430807FA08FC671E012F6FEA0C0C1A
:1057E00034D8876807EA0C0ECF6807FA08F747EA4B
:1057F0000E078760476827EA060EC5F300179F402B
:1058000047EA0E074760C76807EA0C0E8F6807FA79
:1058100008F747EA0E07022CC76019D14FEAD30AEE
:1058200000EB8A0A03F0070BDAF820704FEA8B0BC3
:105830004FF00F0E0EFA0BFE27EA0E0E0F6907FA55
:105840000BF747EA0E07CAF8207001E0032CDAD103
:10585000076804FA08F407EA0C073C4315F4403FD4
:10586000046068D000240194D9F8444044F4804492
:10587000C9F84440D9F8444023F0030707F18047B2
:1058800004F4804407F59C37019403F0030C019C59
:10589000D7F808E04FEA8C0C0F2404FA0CF42EEA37
:1058A000040E324CA0424DD004F58064A0424BD08F
:1058B00004F58064A04249D004F58064A04247D03A
:1058C00004F58064A04245D004F58064A04243D032
:1058D00004F58064A04241D004F58064A0423FD02A
:1058E00004F58064A0423DD004F58064A04214BF5A
:1058F0000A24092404FA0CF444EA0E04BC609468F7
:10590000F74315F4801F0CBF3C4034439460D468C7
:1059100015F4001F0CBF3C403443D460546815F4A8
:10592000003F0CBF3C40344354601468ED0354BF47
:105930003C40344314600133102B7FF43DAF03B07F
:10594000BDE8F08F0024D5E70124D3E70224D1E796
:105950000324CFE70424CDE70524CBE70624C9E7D9
:105960000724C7E70824C5E7003C014000000240C7
:10597000003802400369194214BF0120002070471B
:105980000AB1816170470904FBE7436901EA030238
:1059900021EA030141EA02418161704701684B69D4
:1059A00013F480634FF0000210D06FF480634B61FA
:1059B0002023026380F83D3080F83E20036C80F89D
:1059C0003C2043F0040303640120704718467047ED
:1059D0002DE9F84606460F4691461D464FEA114A04
:1059E0003368BAF1010F0CBF5C699C6927EA0404B3
:1059F000A4B2B4FA84F46409A14501D0002025E0E2
:105A00006A1CEED0FFF746FB089BC01AA84201D8DB
:105A1000002DE5D13368BAF1010F0CBF5B699B69BA
:105A200027EA03039BB2B3FA83F35B099945D7D105
:105A300000232022336386F83D2086F83E30326C06
:105A400086F83C3042F0200232640120BDE8F8863E
:105A50002DE9F04104460F461646984625686869C8
:105A600027EA000080B2C0B16B695A0517D52B68D0
:105A700043F400732B606FF480636B61202200237A
:105A8000236384F83D2084F83E30236C43F0040304
:105A90002364002384F83C300120BDE8F081731CAE
:105AA000DDD0FFF7F7FAA0EB0800B04201D8002ED6
:105AB000D4D123685A6927EA020292B2002ACDD0D3
:105AC00000232022236384F83D2084F83E30236C99
:105AD0001343DDE770B504460D46164623685B693F
